{
  "contractName": "BoardGuys",
  "abi": [
    {
      "inputs": [
        {
          "internalType": "string",
          "name": "name_",
          "type": "string"
        },
        {
          "internalType": "string",
          "name": "symbol_",
          "type": "string"
        },
        {
          "internalType": "string",
          "name": "tokenUri_",
          "type": "string"
        }
      ],
      "stateMutability": "nonpayable",
      "type": "constructor"
    },
    {
      "anonymous": false,
      "inputs": [
        {
          "indexed": false,
          "internalType": "address",
          "name": "owner",
          "type": "address"
        },
        {
          "indexed": false,
          "internalType": "address",
          "name": "spender",
          "type": "address"
        },
        {
          "indexed": false,
          "internalType": "uint256",
          "name": "tokenId",
          "type": "uint256"
        }
      ],
      "name": "Approved",
      "type": "event"
    },
    {
      "anonymous": false,
      "inputs": [
        {
          "indexed": false,
          "internalType": "address",
          "name": "to",
          "type": "address"
        },
        {
          "indexed": false,
          "internalType": "uint256",
          "name": "tokenId",
          "type": "uint256"
        }
      ],
      "name": "Mint",
      "type": "event"
    },
    {
      "anonymous": false,
      "inputs": [
        {
          "indexed": false,
          "internalType": "address",
          "name": "from",
          "type": "address"
        },
        {
          "indexed": false,
          "internalType": "address",
          "name": "to",
          "type": "address"
        },
        {
          "indexed": false,
          "internalType": "uint256",
          "name": "tokenId",
          "type": "uint256"
        }
      ],
      "name": "Transfer",
      "type": "event"
    },
    {
      "inputs": [],
      "name": "name",
      "outputs": [
        {
          "internalType": "string",
          "name": "",
          "type": "string"
        }
      ],
      "stateMutability": "view",
      "type": "function"
    },
    {
      "inputs": [],
      "name": "symbol",
      "outputs": [
        {
          "internalType": "string",
          "name": "",
          "type": "string"
        }
      ],
      "stateMutability": "view",
      "type": "function"
    },
    {
      "inputs": [],
      "name": "owner",
      "outputs": [
        {
          "internalType": "address",
          "name": "",
          "type": "address"
        }
      ],
      "stateMutability": "view",
      "type": "function"
    },
    {
      "inputs": [
        {
          "internalType": "address",
          "name": "holder",
          "type": "address"
        }
      ],
      "name": "balanceOf",
      "outputs": [
        {
          "internalType": "uint256",
          "name": "",
          "type": "uint256"
        }
      ],
      "stateMutability": "view",
      "type": "function"
    },
    {
      "inputs": [
        {
          "internalType": "uint256",
          "name": "tokenId",
          "type": "uint256"
        }
      ],
      "name": "ownerOf",
      "outputs": [
        {
          "internalType": "address",
          "name": "",
          "type": "address"
        }
      ],
      "stateMutability": "view",
      "type": "function"
    },
    {
      "inputs": [
        {
          "internalType": "uint256",
          "name": "tokenId",
          "type": "uint256"
        }
      ],
      "name": "tokenURI",
      "outputs": [
        {
          "internalType": "string",
          "name": "",
          "type": "string"
        }
      ],
      "stateMutability": "view",
      "type": "function"
    },
    {
      "inputs": [],
      "name": "mintPrice",
      "outputs": [
        {
          "internalType": "uint256",
          "name": "",
          "type": "uint256"
        }
      ],
      "stateMutability": "view",
      "type": "function"
    },
    {
      "inputs": [
        {
          "internalType": "uint256",
          "name": "tokenId",
          "type": "uint256"
        }
      ],
      "name": "getSpender",
      "outputs": [
        {
          "internalType": "address",
          "name": "",
          "type": "address"
        }
      ],
      "stateMutability": "view",
      "type": "function"
    },
    {
      "inputs": [
        {
          "internalType": "uint256",
          "name": "price",
          "type": "uint256"
        }
      ],
      "name": "setMintPrice",
      "outputs": [],
      "stateMutability": "nonpayable",
      "type": "function"
    },
    {
      "inputs": [],
      "name": "mint",
      "outputs": [],
      "stateMutability": "payable",
      "type": "function"
    },
    {
      "inputs": [
        {
          "internalType": "address",
          "name": "spender",
          "type": "address"
        },
        {
          "internalType": "uint256",
          "name": "tokenId",
          "type": "uint256"
        }
      ],
      "name": "approve",
      "outputs": [],
      "stateMutability": "nonpayable",
      "type": "function"
    },
    {
      "inputs": [
        {
          "internalType": "address",
          "name": "to",
          "type": "address"
        },
        {
          "internalType": "uint256",
          "name": "tokenId",
          "type": "uint256"
        }
      ],
      "name": "transfer",
      "outputs": [],
      "stateMutability": "nonpayable",
      "type": "function"
    },
    {
      "inputs": [
        {
          "internalType": "address",
          "name": "from",
          "type": "address"
        },
        {
          "internalType": "address",
          "name": "to",
          "type": "address"
        },
        {
          "internalType": "uint256",
          "name": "tokenId",
          "type": "uint256"
        }
      ],
      "name": "transferFrom",
      "outputs": [],
      "stateMutability": "nonpayable",
      "type": "function"
    }
  ],
  "bytecode": "0x60806040525f6003555f60085534801562000018575f80fd5b5060405162001bfa38038062001bfa83398181016040528101906200003e919062000241565b825f90816200004e91906200052e565b5081600190816200006091906200052e565b5080600290816200007291906200052e565b503360045f6101000a81548173ffffffffffffffffffffffffffffffffffffffff021916908373ffffffffffffffffffffffffffffffffffffffff16021790555050505062000612565b5f604051905090565b5f80fd5b5f80fd5b5f80fd5b5f80fd5b5f601f19601f8301169050919050565b7f4e487b71000000000000000000000000000000000000000000000000000000005f52604160045260245ffd5b6200011d82620000d5565b810181811067ffffffffffffffff821117156200013f576200013e620000e5565b5b80604052505050565b5f62000153620000bc565b905062000161828262000112565b919050565b5f67ffffffffffffffff821115620001835762000182620000e5565b5b6200018e82620000d5565b9050602081019050919050565b5f5b83811015620001ba5780820151818401526020810190506200019d565b5f8484015250505050565b5f620001db620001d58462000166565b62000148565b905082815260208101848484011115620001fa57620001f9620000d1565b5b620002078482856200019b565b509392505050565b5f82601f830112620002265762000225620000cd565b5b815162000238848260208601620001c5565b91505092915050565b5f805f606084860312156200025b576200025a620000c5565b5b5f84015167ffffffffffffffff8111156200027b576200027a620000c9565b5b62000289868287016200020f565b935050602084015167ffffffffffffffff811115620002ad57620002ac620000c9565b5b620002bb868287016200020f565b925050604084015167ffffffffffffffff811115620002df57620002de620000c9565b5b620002ed868287016200020f565b9150509250925092565b5f81519050919050565b7f4e487b71000000000000000000000000000000000000000000000000000000005f52602260045260245ffd5b5f60028204905060018216806200034657607f821691505b6020821081036200035c576200035b62000301565b5b50919050565b5f819050815f5260205f209050919050565b5f6020601f8301049050919050565b5f82821b905092915050565b5f60088302620003c07fffffffffffffffffffffffffffffffffffffffffffffffffffffffffffffffff8262000383565b620003cc868362000383565b95508019841693508086168417925050509392505050565b5f819050919050565b5f819050919050565b5f62000416620004106200040a84620003e4565b620003ed565b620003e4565b9050919050565b5f819050919050565b6200043183620003f6565b6200044962000440826200041d565b8484546200038f565b825550505050565b5f90565b6200045f62000451565b6200046c81848462000426565b505050565b5b818110156200049357620004875f8262000455565b60018101905062000472565b5050565b601f821115620004e257620004ac8162000362565b620004b78462000374565b81016020851015620004c7578190505b620004df620004d68562000374565b83018262000471565b50505b505050565b5f82821c905092915050565b5f620005045f1984600802620004e7565b1980831691505092915050565b5f6200051e8383620004f3565b9150826002028217905092915050565b6200053982620002f7565b67ffffffffffffffff811115620005555762000554620000e5565b5b6200056182546200032e565b6200056e82828562000497565b5f60209050601f831160018114620005a4575f84156200058f578287015190505b6200059b858262000511565b8655506200060a565b601f198416620005b48662000362565b5f5b82811015620005dd57848901518255600182019150602085019450602081019050620005b6565b86831015620005fd5784890151620005f9601f891682620004f3565b8355505b6001600288020188555050505b505050505050565b6115da80620006205f395ff3fe6080604052600436106100c1575f3560e01c806370a082311161007e57806395d89b411161005857806395d89b4114610251578063a9059cbb1461027b578063c87b56dd146102a3578063f4a0a528146102df576100c1565b806370a08231146101af5780637432a51a146101eb5780638da5cb5b14610227576100c1565b806306fdde03146100c5578063095ea7b3146100ef5780631249c58b1461011757806323b872dd146101215780636352211e146101495780636817c76c14610185575b5f80fd5b3480156100d0575f80fd5b506100d9610307565b6040516100e69190610e65565b60405180910390f35b3480156100fa575f80fd5b5061011560048036038101906101109190610f16565b610396565b005b61011f61049a565b005b34801561012c575f80fd5b5061014760048036038101906101429190610f54565b61060d565b005b348015610154575f80fd5b5061016f600480360381019061016a9190610fa4565b610693565b60405161017c9190610fde565b60405180910390f35b348015610190575f80fd5b506101996106cc565b6040516101a69190611006565b60405180910390f35b3480156101ba575f80fd5b506101d560048036038101906101d0919061101f565b6106d5565b6040516101e29190611006565b60405180910390f35b3480156101f6575f80fd5b50610211600480360381019061020c9190610fa4565b610789565b60405161021e9190610fde565b60405180910390f35b348015610232575f80fd5b5061023b6107c2565b6040516102489190610fde565b60405180910390f35b34801561025c575f80fd5b506102656107ea565b6040516102729190610e65565b60405180910390f35b348015610286575f80fd5b506102a1600480360381019061029c9190610f16565b61087a565b005b3480156102ae575f80fd5b506102c960048036038101906102c49190610fa4565b6108ff565b6040516102d69190610e65565b60405180910390f35b3480156102ea575f80fd5b5061030560048036038101906103009190610fa4565b610978565b005b60605f805461031590611077565b80601f016020809104026020016040519081016040528092919081815260200182805461034190611077565b801561038c5780601f106103635761010080835404028352916020019161038c565b820191905f5260205f20905b81548152906001019060200180831161036f57829003601f168201915b5050505050905090565b61039f81610693565b73ffffffffffffffffffffffffffffffffffffffff163373ffffffffffffffffffffffffffffffffffffffff161461040c576040517f08c379a0000000000000000000000000000000000000000000000000000000008152600401610403906110f1565b60405180910390fd5b8160075f8381526020019081526020015f205f6101000a81548173ffffffffffffffffffffffffffffffffffffffff021916908373ffffffffffffffffffffffffffffffffffffffff1602179055507f80da462ebfbe41cfc9bc015e7a9a3c7a2a73dbccede72d8ceb583606c27f8f9033838360405161048e9392919061110f565b60405180910390a15050565b6104a26106cc565b34146104e3576040517f08c379a00000000000000000000000000000000000000000000000000000000081526004016104da9061118e565b60405180910390fd5b5f6001600854019050806008819055503360055f60085481526020019081526020015f205f6101000a81548173ffffffffffffffffffffffffffffffffffffffff021916908373ffffffffffffffffffffffffffffffffffffffff160217905550600160065f3373ffffffffffffffffffffffffffffffffffffffff1673ffffffffffffffffffffffffffffffffffffffff1681526020019081526020015f205461058e91906111d9565b60065f3373ffffffffffffffffffffffffffffffffffffffff1673ffffffffffffffffffffffffffffffffffffffff1681526020019081526020015f20819055507f0f6798a560793a54c3bcfe86a93cde1e73087d944c0ea20544137d41213968853360085460405161060292919061120c565b60405180910390a150565b61061681610789565b73ffffffffffffffffffffffffffffffffffffffff163373ffffffffffffffffffffffffffffffffffffffff1614610683576040517f08c379a000000000000000000000000000000000000000000000000000000000815260040161067a9061127d565b60405180910390fd5b61068e838383610a11565b505050565b5f60055f8381526020019081526020015f205f9054906101000a900473ffffffffffffffffffffffffffffffffffffffff169050919050565b5f600354905090565b5f8073ffffffffffffffffffffffffffffffffffffffff168273ffffffffffffffffffffffffffffffffffffffff1603610744576040517f08c379a000000000000000000000000000000000000000000000000000000000815260040161073b906112e5565b60405180910390fd5b60065f8373ffffffffffffffffffffffffffffffffffffffff1673ffffffffffffffffffffffffffffffffffffffff1681526020019081526020015f20549050919050565b5f60075f8381526020019081526020015f205f9054906101000a900473ffffffffffffffffffffffffffffffffffffffff169050919050565b5f60045f9054906101000a900473ffffffffffffffffffffffffffffffffffffffff16905090565b6060600180546107f990611077565b80601f016020809104026020016040519081016040528092919081815260200182805461082590611077565b80156108705780601f1061084757610100808354040283529160200191610870565b820191905f5260205f20905b81548152906001019060200180831161085357829003601f168201915b5050505050905090565b61088381610693565b73ffffffffffffffffffffffffffffffffffffffff163373ffffffffffffffffffffffffffffffffffffffff16146108f0576040517f08c379a00000000000000000000000000000000000000000000000000000000081526004016108e7906110f1565b60405180910390fd5b6108fb338383610a11565b5050565b6060600854821115610946576040517f08c379a000000000000000000000000000000000000000000000000000000000815260040161093d9061134d565b60405180910390fd5b600261095183610bc0565b604051602001610962929190611481565b6040516020818303038152906040529050919050565b60045f9054906101000a900473ffffffffffffffffffffffffffffffffffffffff1673ffffffffffffffffffffffffffffffffffffffff163373ffffffffffffffffffffffffffffffffffffffff1614610a07576040517f08c379a00000000000000000000000000000000000000000000000000000000081526004016109fe906114f9565b60405180910390fd5b8060038190555050565b5f60065f8573ffffffffffffffffffffffffffffffffffffffff1673ffffffffffffffffffffffffffffffffffffffff1681526020019081526020015f205490505f60065f8573ffffffffffffffffffffffffffffffffffffffff1673ffffffffffffffffffffffffffffffffffffffff1681526020019081526020015f20549050600182610aa09190611517565b60065f8773ffffffffffffffffffffffffffffffffffffffff1673ffffffffffffffffffffffffffffffffffffffff1681526020019081526020015f2081905550600181610aee91906111d9565b60065f8673ffffffffffffffffffffffffffffffffffffffff1673ffffffffffffffffffffffffffffffffffffffff1681526020019081526020015f20819055508360055f8581526020019081526020015f205f6101000a81548173ffffffffffffffffffffffffffffffffffffffff021916908373ffffffffffffffffffffffffffffffffffffffff1602179055507fddf252ad1be2c89b69c2b068fc378daa952ba7f163c4a11628f55a4df523b3ef858585604051610bb19392919061110f565b60405180910390a15050505050565b60605f6001610bce84610c8a565b0190505f8167ffffffffffffffff811115610bec57610beb61154a565b5b6040519080825280601f01601f191660200182016040528015610c1e5781602001600182028036833780820191505090505b5090505f82602001820190505b600115610c7f578080600190039150507f3031323334353637383961626364656600000000000000000000000000000000600a86061a8153600a8581610c7457610c73611577565b5b0494505f8503610c2b575b819350505050919050565b5f805f90507a184f03e93ff9f4daa797ed6e38ed64bf6a1f0100000000000000008310610ce6577a184f03e93ff9f4daa797ed6e38ed64bf6a1f0100000000000000008381610cdc57610cdb611577565b5b0492506040810190505b6d04ee2d6d415b85acef81000000008310610d23576d04ee2d6d415b85acef81000000008381610d1957610d18611577565b5b0492506020810190505b662386f26fc100008310610d5257662386f26fc100008381610d4857610d47611577565b5b0492506010810190505b6305f5e1008310610d7b576305f5e1008381610d7157610d70611577565b5b0492506008810190505b6127108310610da0576127108381610d9657610d95611577565b5b0492506004810190505b60648310610dc35760648381610db957610db8611577565b5b0492506002810190505b600a8310610dd2576001810190505b80915050919050565b5f81519050919050565b5f82825260208201905092915050565b5f5b83811015610e12578082015181840152602081019050610df7565b5f8484015250505050565b5f601f19601f8301169050919050565b5f610e3782610ddb565b610e418185610de5565b9350610e51818560208601610df5565b610e5a81610e1d565b840191505092915050565b5f6020820190508181035f830152610e7d8184610e2d565b905092915050565b5f80fd5b5f73ffffffffffffffffffffffffffffffffffffffff82169050919050565b5f610eb282610e89565b9050919050565b610ec281610ea8565b8114610ecc575f80fd5b50565b5f81359050610edd81610eb9565b92915050565b5f819050919050565b610ef581610ee3565b8114610eff575f80fd5b50565b5f81359050610f1081610eec565b92915050565b5f8060408385031215610f2c57610f2b610e85565b5b5f610f3985828601610ecf565b9250506020610f4a85828601610f02565b9150509250929050565b5f805f60608486031215610f6b57610f6a610e85565b5b5f610f7886828701610ecf565b9350506020610f8986828701610ecf565b9250506040610f9a86828701610f02565b9150509250925092565b5f60208284031215610fb957610fb8610e85565b5b5f610fc684828501610f02565b91505092915050565b610fd881610ea8565b82525050565b5f602082019050610ff15f830184610fcf565b92915050565b61100081610ee3565b82525050565b5f6020820190506110195f830184610ff7565b92915050565b5f6020828403121561103457611033610e85565b5b5f61104184828501610ecf565b91505092915050565b7f4e487b71000000000000000000000000000000000000000000000000000000005f52602260045260245ffd5b5f600282049050600182168061108e57607f821691505b6020821081036110a1576110a061104a565b5b50919050565b7f596f7520617265206e6f7420746865206f776e6572206f6620746f6b656e00005f82015250565b5f6110db601e83610de5565b91506110e6826110a7565b602082019050919050565b5f6020820190508181035f830152611108816110cf565b9050919050565b5f6060820190506111225f830186610fcf565b61112f6020830185610fcf565b61113c6040830184610ff7565b949350505050565b7f496e73756666696369656e74204d696e742056616c75652050726f76696465645f82015250565b5f611178602083610de5565b915061118382611144565b602082019050919050565b5f6020820190508181035f8301526111a58161116c565b9050919050565b7f4e487b71000000000000000000000000000000000000000000000000000000005f52601160045260245ffd5b5f6111e382610ee3565b91506111ee83610ee3565b9250828201905080821115611206576112056111ac565b5b92915050565b5f60408201905061121f5f830185610fcf565b61122c6020830184610ff7565b9392505050565b7f596f7520617265206e6f74207370656e646572206f6620746f6b656e000000005f82015250565b5f611267601c83610de5565b915061127282611233565b602082019050919050565b5f6020820190508181035f8301526112948161125b565b9050919050565b7f6f776e65722063616e2774206265207a65726f000000000000000000000000005f82015250565b5f6112cf601383610de5565b91506112da8261129b565b602082019050919050565b5f6020820190508181035f8301526112fc816112c3565b9050919050565b7f4e4654206e6f74204d696e7465642059657421000000000000000000000000005f82015250565b5f611337601383610de5565b915061134282611303565b602082019050919050565b5f6020820190508181035f8301526113648161132b565b9050919050565b5f81905092915050565b5f819050815f5260205f209050919050565b5f815461139381611077565b61139d818661136b565b9450600182165f81146113b757600181146113cc576113fe565b60ff19831686528115158202860193506113fe565b6113d585611375565b5f5b838110156113f6578154818901526001820191506020810190506113d7565b838801955050505b50505092915050565b5f61141182610ddb565b61141b818561136b565b935061142b818560208601610df5565b80840191505092915050565b7f2e6a736f6e0000000000000000000000000000000000000000000000000000005f82015250565b5f61146b60058361136b565b915061147682611437565b600582019050919050565b5f61148c8285611387565b91506114988284611407565b91506114a38261145f565b91508190509392505050565b7f43616c6c6572206973206e6f7420746865206f776e65720000000000000000005f82015250565b5f6114e3601783610de5565b91506114ee826114af565b602082019050919050565b5f6020820190508181035f830152611510816114d7565b9050919050565b5f61152182610ee3565b915061152c83610ee3565b9250828203905081811115611544576115436111ac565b5b92915050565b7f4e487b71000000000000000000000000000000000000000000000000000000005f52604160045260245ffd5b7f4e487b71000000000000000000000000000000000000000000000000000000005f52601260045260245ffdfea26469706673582212206e4b498067a0a0ec4cbe61160dc4addc7d2e59114fb4b4999fae88fdb7aceddb64736f6c63430008150033",
  "immutableReferences": {},
  "source": "// SPDX-License-Identifier: MIT\npragma solidity >=0.4.22 <0.9.0;\nimport \"@openzeppelin/contracts/utils/Strings.sol\";\n\ncontract BoardGuys {\n    using Strings for uint256;\n    // Token details\n    string private _name;\n    string private _symbol;\n    string private _tokenURI;\n\n    // Minting price for NFTs\n    uint256 private _mintPrice = 0;\n\n    // Owner of the contract\n    address private _owner;\n\n    // Mapping from token ID to the holder's address\n    mapping(uint256 => address) private _holders;\n\n    // Mapping from address to balance (number of NFTs held)\n    mapping(address => uint256) private _balances;\n\n    // Mapping from token ID to approved address\n    mapping(uint256 => address) private _allowances;\n\n    // Counter for tracking the number of NFTs minted\n    uint256 private _nftCounter = 0;\n\n    // Events for logging actions\n    event Transfer(address from, address to, uint256 tokenId);\n    event Approved(address owner, address spender, uint256 tokenId);\n    event Mint(address to, uint256 tokenId);\n\n    // Constructor to initialize the contract with name, symbol, and token URI\n    constructor(\n        string memory name_,\n        string memory symbol_,\n        string memory tokenUri_\n    ) {\n        _name = name_;\n        _symbol = symbol_;\n        _tokenURI = tokenUri_;\n        _owner = msg.sender;\n    }\n\n    // Modifier to restrict functions to only the owner\n    modifier onlyOwner() {\n        require(msg.sender == _owner, \"Caller is not the owner\");\n        _;\n    }\n\n    // Function to get the token name\n    function name() public view returns (string memory) {\n        return _name;\n    }\n\n    // Function to get the token symbol\n    function symbol() public view returns (string memory) {\n        return _symbol;\n    }\n\n    // Function to get the contract owner\n    function owner() public view returns (address) {\n        return _owner;\n    }\n\n    // Function to get the balance of a specific address\n    function balanceOf(address holder) public view returns (uint256) {\n        require(holder != address(0), \"owner can't be zero\");\n        return _balances[holder];\n    }\n\n    // Function to get the owner of a specific token ID\n    function ownerOf(uint256 tokenId) public view returns (address) {\n        return _holders[tokenId];\n    }\n\n    // Function to get the URI for a specific token ID\n    function tokenURI(uint256 tokenId) public view returns (string memory) {\n        require(tokenId <= _nftCounter, \"NFT not Minted Yet!\");\n        return string(abi.encodePacked(_tokenURI, tokenId.toString(), \".json\"));\n    }\n\n    // Function to get the current mint price\n    function mintPrice() public view returns (uint256) {\n        return _mintPrice;\n    }\n\n    // Function to get the approved spender for a specific token ID\n    function getSpender(uint256 tokenId) public view returns (address) {\n        return _allowances[tokenId];\n    }\n\n    // Setter function to update the mint price, restricted to owner\n    function setMintPrice(uint256 price) external onlyOwner {\n        _mintPrice = price;\n    }\n\n    // Function to mint a new NFT, requires payment of the mint price\n    function mint() external payable {\n        require(msg.value == mintPrice(), \"Insufficient Mint Value Provided\");\n\n        uint256 newNftCounter;\n\n        unchecked {\n            newNftCounter = _nftCounter + 1;\n            _nftCounter = newNftCounter;\n        }\n\n        _holders[_nftCounter] = msg.sender;\n        _balances[msg.sender] = _balances[msg.sender] + 1;\n\n        emit Mint(msg.sender, _nftCounter);\n    }\n\n    // Function to approve a spender for a specific token ID\n    function approve(address spender, uint256 tokenId) external {\n        require(\n            msg.sender == ownerOf(tokenId),\n            \"You are not the owner of token\"\n        );\n\n        _allowances[tokenId] = spender;\n\n        emit Approved(msg.sender, spender, tokenId);\n    }\n\n    // Function to transfer a token to a new address\n    function transfer(address to, uint256 tokenId) external {\n        require(\n            msg.sender == ownerOf(tokenId),\n            \"You are not the owner of token\"\n        );\n\n        _transfer(msg.sender, to, tokenId);\n    }\n\n    // Function to transfer a token from one address to another, requires approval\n    function transferFrom(address from, address to, uint256 tokenId) external {\n        require(\n            msg.sender == getSpender(tokenId),\n            \"You are not spender of token\"\n        );\n\n        _transfer(from, to, tokenId);\n    }\n\n    // Internal function to handle the transfer of a token\n    function _transfer(address from, address to, uint256 tokenId) private {\n        // loading variables to memory to save gas\n        uint256 fromBalance = _balances[from];\n        uint256 toBalance = _balances[to];\n\n        // Update balances\n        _balances[from] = fromBalance - 1;\n        _balances[to] = toBalance + 1;\n\n        _holders[tokenId] = to;\n\n        emit Transfer(from, to, tokenId);\n    }\n}\n",
  "sourcePath": "C:\\Users\\Baby\\Desktop\\nft-contract\\contracts\\BoardGuys.sol",
  "compiler": {
    "name": "solc",
    "version": "0.8.21+commit.d9974bed.Emscripten.clang"
  },
  "schemaVersion": "3.4.16",
  "updatedAt": "2024-07-18T10:58:13.352Z",
  "devdoc": {
    "kind": "dev",
    "methods": {},
    "version": 1
  },
  "userdoc": {
    "kind": "user",
    "methods": {},
    "version": 1
  }
}